S00D000053747564792E73726563FE
S113000033C0000041C000003FC000003DC00000FC
S11300103BC0000039C0000037C0000035C00000FC
S113002033C0000031C000002FC000002DC000000C
S11300302BC0000029C0000027C0000025C000001C
S113004023C0000021C000001FC000001DC000002C
S11300501BC000001AC0000017C0000015C000003B
S113006013C0000011C0000011241FBECFEFD8E060
S1130070DEBFCDBF21E0A0E0B1E001C01D92A13000
S1130080B207E1F714D025C0BBCF1F920F920FB671
S11300900F9211248F93F89480917900809300013A
S11300A078948F910F900FBE0F901F90189580E653
S11300B080937C008FEE80937A0081E080937E00B1
S11300C081E884BD85E085BD78948091000187BD79
S10900D0FCCFF894FFCF01
S9030000FC
